:020000040000fa
:0400000080ef00f09d
:10010000939e939c9398818e819c81983f513f5df3
:1001100040e13e51010f3e6f3e51010b000801e0ee
:10012000818e3e51010b000801e1819e3e51020b80
:10013000000801e0818c3e51020b000801e1819c26
:100140003e51040b000801e081883e51040b000879
:1001500001e18198000e3d6f3d516408e86c18e79d
:10016000000e3c6f3c516408e86c0ee7000e3b6fdc
:100170003b510a08e86c04e73b51010f3b6ff8d78d
:100180003c51010f3c6feed73d51010f3d6fe4d75d
:02019000bdd7d9
:00000001ff
